:020000040800F2
:10000000C04200206D020008E95A0008D1510008E2
:10001000E55A0008410A00081967000800000000BE
:10002000000000000000000000000000C95C0008A3
:10003000350C000800000000595B0008CD5C00088A
:1000400089020008890200088902000800000000F7
:1000500089020008890200088902000800000000E7
:1000600089020008890200080000000089020008D7
:100070008902000889020008890200088902000834
:100080008902000889020008890200088902000824
:100090008902000889020008890200088902000814
:1000A0008902000889020008890200088902000804
:1000B00089020008890200088902000889020008F4
:1000C00089020008890200088902000889020008E4
:1000D0000000000089020008890200088902000867
:1000E00089020008890200088902000889020008C4
:1000F0008902000889020008890200080000000047
:100100000000000089020008890200088902000836
:100110008902000889020008890200088902000893
:100120008902000889020008890200088902000883
:100130008902000800000000000000008902000899
:10014000890200080000000000000000000000001C
:10015000000000000000000089020008000000000C
:100160000000000000000000890200088902000869
:10017000000000000000000000000000000000007F
:10018000000000000000000000000000000000006F
:10019000000000000000000000000000000000005F
:1001A0000000000000000000890200088902000829
:1001B00089020008890200088902000889020008F3
:1001C0008902000889020008000000000000000009
:1001D000000000000000000000000000890200088C
:1001E000890200080000000000000000000000007C
:1001F00000000000000000000000000000000000FF
:1002000000000000890200088902000800000000C8
:10021000000000008902000800000000000000004B
:10022000000000000000000000000000890200083B
:10023000890200080000000000000000000000002B
:10024000000000000000000000000000890200081B
:100250008902000889020008DFF80CD000F05CFA7F
:1002600000480047D9770008C0420020074880476F
:1002700007480047FEE7FEE7FEE7FEE7FEE7FEE78A
:10028000FEE7FEE7FEE7FEE7FEE700009D5D0008F3
:10029000590200082DE9F05F0546002092469B4672
:1002A00088460646814640241BE02846414647468C
:1002B000224600F069F853465A46C01A914110D3BD
:1002C00011461846224600F050F82D1A67EB010837
:1002D0004F4622460120002100F047F817EB0009A5
:1002E0004E41201EA4F10104DFDC484631462A4677
:1002F0004346BDE8F09F40EA01039B0703D009E0B5
:1003000008C9121F08C0042AFAD203E011F8013B01
:1003100000F8013B521EF9D27047D2B201E000F85A
:10032000012B491EFBD270470022F6E710B5134699
:100330000A4604461946FFF7F0FF204610BD30B5C7
:100340000B46014600202022012409E021FA02F593
:100350009D4205D303FA02F5491B04FA02F528442D
:10036000151EA2F10102F1DC30BD202A04DB203A87
:1003700000FA02F1002070479140C2F1200320FAF8
:1003800003F3194390407047202A04DB203A21FAF6
:1003900002F00021704721FA02F3D040C2F120029E
:1003A00091400843194670472DE9FE4F804681EA87
:1003B0000300C00F0C46009021F0004123F00045DF
:1003C000B8EB0200A94105D24046214690461C46A2
:1003D0000B46024623F00040104347D0270DC7F3D9
:1003E0000A00C3F30A510290401A019040286BDAC8
:1003F000C3F3130040F4801B0098924620B1002301
:10040000D2EB030A63EB0B0B01985946C0F1400293
:100410005046FFF7AAFF06460D4650465946019A38
:1004200000F08CF910EB08006141002487EA1152BA
:1004300084EAE7731A4340D0009A62B3019A012A12
:100440004FEA075215DC001B61EB02014FF000423E
:1004500002EA0752CDE90042001C41F58011324604
:100460002B4600F08CF903B0BDE8F08F40462146E2
:10047000F9E7001B61EB0201001C41F58013001835
:100480005B412018A2F5001747EB030140EAD57045
:10049000B6196D4111E06D084FEA360645EAC075A0
:1004A0004FEA0752001B61EB0201001C41F580116D
:1004B00049084FEA30000019514132462B4603B03B
:1004C000BDE8F04F00F04CB9009801224000002335
:1004D000D0EB020263EBE073009821464FEAE07430
:1004E000B8EB000061EB0401E9E783F000435BE750
:1004F00081F0004158E72DE9FE4F81EA030404F042
:10050000004421F0004100944FF0000B23F0004321
:1005100050EA01045ED052EA03045BD0C3F30A54EC
:10052000C1F30A552C44A4F2F3340194A0FB025405
:10053000C1F3130141F48011C3F3130343F4801397
:1005400001FB024400FB034E840A970A44EA8154EB
:1005500047EA8357A4FB076802958D0A05FB0785C8
:100560004FEA932C04FB0C542705029D4FEA0658D2
:1005700047EA1637B5EB08056EEB070C870E920EAF
:1005800047EA811742EA8312A7FB0201B6EB0B018F
:1005900064EB00042B0D43EA0C335E1844EB1C5053
:1005A000DA465146E7FB0201C5F313044FEA0B3369
:1005B00043EA14534FEA0432019C43EA0603A4F1D0
:1005C0000C040294009CCDE900B400F0D8F803B00C
:1005D000BDE8F08F00200146F9E72DE9F04D81EAF2
:1005E000030404F0004B21F0004514464FF0000ACC
:1005F00023F0004150EA050220D054EA01021DD048
:10060000C5F30A570246C5F31303C1F31300C1F340
:100610000A5640F4801543F48013A7EB0608101B1C
:10062000D64608F2FD3873EB050002D308F1010845
:1006300001E092185B41B8F1000F03DA0020014697
:10064000BDE8F08D00204FF48011064684460EE090
:10065000171B73EB050705D3121B63EB050306435A
:100660004CEA010C49084FEA300092185B4150EA0D
:100670000107EDD152EA030012D082EA040083EAB6
:100680000501084305D0101BAB4106D2012200230F
:1006900006E000224FF0004302E06FF00102531029
:1006A0001AEB06004CEB085110EB0A0041EB0B0172
:1006B000BDE8F04D00F054B8C1F30A52C1F3130184
:1006C00040F2FF3341F480119A4202DA00200146E1
:1006D000704740F233439A42A2F2334202DC524264
:1006E000FFF752BEFFF741BE30B5041E71F10004A2
:1006F00004DB4FF00044404264EB0101141E73F12F
:10070000000405DB1C464FF00043524263EB040338
:10071000994208BF904230BD064C074D06E0E068A4
:1007200040F0010394E8070098471034AC42F6D338
:10073000FFF796FD6485000884850008202A06DB03
:10074000CB17203A41FA02F043EAE07306E041FA9F
:1007500002F3D040C2F1200291400843194670478D
:1007600010B5141E73F1000408DA401C41F10001B9
:1007700092185B411A4301D120F0010010BD2DE910
:10078000F04D92469B4611B1B1FA81F202E0B0FA07
:1007900080F220329046FFF7E8FD04460F4640EA1B
:1007A0000A0041EA0B0153465A46084313D011464A
:1007B00053EA010019D0C8F140025046FFF7E4FDAA
:1007C00005460E46504659464246FFF7CEFD0843C1
:1007D00005D0012004E020463946BDE8F08D002018
:1007E000054346EAE0762C4337430A986305E40A5A
:1007F000A0EB08000022FD0A44EA47540A3002D563
:1008000000200146E9E7010510196941DDE90845C5
:1008100000196941BDE8F04DA2E7000080B584B041
:100820008DF80F00002002909DF80F00022804D3DD
:10083000FFE76FF00100029026E09DF80F2040F2E4
:100840000400C2F2000050F822009421019102FB42
:1008500001F340F2CC12C2F200020092D0509DF897
:100860000F0010FB012005F001FF009A01999DF88F
:100870000F0010FB012005F0C5F820B1FFE76FF075
:1008800003000290FFE7FFE7029804B080BD00007C
:1008900080B500F043FC80BD80B582B0002001909F
:1008A00040F26C00C2F200000068D8B1FFE740F2ED
:1008B0006C01C2F2000108680138086088B9FFE7DE
:1008C00040F26020C2F20000009004F083FC009827
:1008D00000F0C8FC20B1FFE76FF007000190FFE7D0
:1008E000FFE7FFE7019802B080BD000080B582B04D
:1008F0000020019040F26021C2F2000145F2004068
:10090000C4F20000086040F26C02C2F200021068FB
:10091000411C116088BBFFE740F26020C2F200007A
:1009200000F0D6FC40BBFFE740F26020C2F20000BE
:1009300004F06AFC0198F0B9FFE740F26020C2F2CF
:10094000000005F007F820B1FFE76FF00700019005
:1009500010E040F26020C2F20000002100F0E4FB51
:1009600020B1FFE76FF00700019002E00020019046
:10097000FFE7FFE7FFE7FFE7FFE7019802B080BD71
:1009800080B586B0ADF816000491ADF80E200020B9
:100990000290BDF81610049ABDF80E30EC464FF4E4
:1009A0008050CCF8000040F26020C2F2000000F05D
:1009B00021FD90B1FFE740F26020C2F2000000F09C
:1009C00081FC042804D0FFE76FF06500029003E08B
:1009D0006FF003000290FFE7FFE7029806B080BDCA
:1009E00080B586B0ADF816000491ADF80E20002059
:1009F0000290BDF81610049ABDF80E30EC464FF484
:100A00008050CCF8000040F26020C2F2000000F0FC
:100A1000FFFD90B1FFE740F26020C2F2000000F05D
:100A200051FC042804D0FFE76FF06500029003E05A
:100A30006FF003000290FFE7FFE7029806B080BD69
:100A4000FFE7FEE780B584B003900291039820B1E0
:100A5000FFE76FF0010001901BE0039940F258009E
:100A6000C2F2000050F82100026940F25400C2F2C4
:100A7000000050F8210002999047B0F1FF3F04DCDC
:100A8000FFE76FF00400019002E000200190FFE713
:100A9000FFE7019804B080BD80B584B00390029157
:100AA000039820B1FFE76FF0010001901BE003996C
:100AB00040F25800C2F2000050F82100C26840F233
:100AC0005400C2F2000050F8210002999047B0F1A2
:100AD000FF3F04DCFFE76FF00400019002E000201C
:100AE0000190FFE7FFE7019804B080BD80B584B0B6
:100AF00003900291039820B1FFE76FF0010001908D
:100B00001BE0039940F25800C2F2000050F82100A7
:100B1000C26940F25400C2F2000050F8210002996C
:100B20009047B0F1FF3F04DCFFE76FF00400019055
:100B300002E000200190FFE7FFE7019804B080BDCC
:100B400080B582B00190019820B1FFE76FF00100FD
:100B5000009016E006F038FF019868B9FFE70198A9
:100B600006F03EF820B1FFE74FF0FF30009002E0C2
:100B700000200090FFE703E06FF006000090FFE721
:100B8000FFE7009802B080BD80B584B00390029169
:100B9000039820B1FFE76FF0010001901BE003997B
:100BA00040F25800C2F2000050F82100826840F282
:100BB0005400C2F2000050F8210002999047B0F1B1
:100BC000FF3F04DCFFE76FF00400019002E000202B
:100BD0000190FFE7FFE7019804B080BD80B584B0C5
:100BE00003908DF80B10039820B1FFE76FF0010020
:100BF00001901CE0039940F25800C2F2000050F846
:100C00002100026A40F25400C2F2000050F82100B4
:100C10009DF80B109047B0F1FF3F04DCFFE76FF049
:100C20000400019002E000200190FFE7FFE7019837
:100C300004B080BD7047000072B6FFE7FEE7000019
:100C400080B584B0039000F069FA02900398019097
:100C50000198013048B1FFE740F24400C2F20000C1
:100C60000178019808440190FFE7FFE700F056FA89
:100C70000299401A0199884201D2FFE7F6E704B0D1
:100C800080BD000085B00490039100200090FFE734
:100C900003980099C840002800F09980FFE7039866
:100CA000009A01219140084001900198002800F02D
:100CB0008A80FFE7009820F0030042F26001C4F24E
:100CC000024140580290009800F00300C1000F203C
:100CD00000FA01F1029808400290029804994FF638
:100CE0000042CBF6FD521140890A009A02F003023D
:100CF000D2009140884233D1FFE7019A42F280014D
:100D0000C4F20241086890430860019A42F28401EB
:100D1000C4F20241086890430860019A42F200015F
:100D2000C4F20241086890430860019A42F204014B
:100D3000C4F20241086890430860009800F0030084
:100D4000C1000F2088400290029B009820F0030110
:100D500042F26002C4F20242885898438850FFE78A
:100D600000984100032000FA01F3049A1168194326
:100D70001160DDF800C00CF007018A000F2101FAB4
:100D800002F304996FF0030202EA5C020A44116A5A
:100D9000994311620099490000FA01F3049A91689D
:100DA00099439160009A012101FA02F3049A516873
:100DB000994351600099490000FA01F20499C8680A
:100DC0009043C860FFE700980130009060E705B0ED
:100DD0007047000085B00490039100200090FFE769
:100DE000039800680099C840002800F06681FFE77A
:100DF00003980068009A01219140084001900198F1
:100E0000002800F05681FFE703984068022805D0CB
:100E1000FFE703984068122828D1FFE7049800995B
:100E20006FF0030202EA51010844006A0290009840
:100E300000F0070081000F2000FA01F102988843BA
:100E400002900398006900F00F00009901F007017B
:100E5000890000FA01F1029808430290029804996F
:100E6000009B02EA530211440862FFE704980068FD
:100E7000029000984100032000FA01F10298884393
:100E800002900398406800F003000099490000FABE
:100E900001F10298084302900298049908600398AF
:100EA000406801280FD0FFE70398406802280AD065
:100EB000FFE703984068112805D0FFE703984068D2
:100EC00012282FD1FFE70498806802900098410013
:100ED000032000FA01F10298884302900398C06849
:100EE0000099490000FA01F1029808430290029823
:100EF000049988600498406802900099012000FAE3
:100F000001F102988843029003984068C0F30010F2
:100F1000009900FA01F1029808430290029804999E
:100F20004860FFE70398406800F0030003280CD1F5
:100F3000FFE70398406800F0030003281DD1FFE796
:100F400003988068012818D0FFE70498C0680290D1
:100F500000984100032000FA01F1029888430290B2
:100F6000039880680099490000FA01F1029808434B
:100F7000029002980499C860FFE70398C079C00600
:100F8000002840F19580FFE7009820F0030042F22E
:100F90006002C4F2024280580290009800F0030000
:100FA000C1000F2000FA01F10298884302900498D2
:100FB0004FF60041CBF6FD510840800A009901F040
:100FC0000301C90000FA01F1029808430290029857
:100FD000009921F00301885042F20000C4F202405F
:100FE00000680290019902988843029003988079E2
:100FF000C006002805D5FFE7019902980843029032
:10100000FFE7029842F20001C4F20241086042F296
:101010000400C4F2024000680290019902988843DB
:101020000290039880798006002805D5FFE7019992
:10103000029808430290FFE7029842F20401C4F2CA
:101040000241086042F28400C4F20240006802904B
:1010500001990298884302900398807980070028BC
:1010600005D5FFE70199029808430290FFE702982F
:1010700042F28401C4F20241086042F28000C4F2EC
:1010800002400068029001990298884302900398F8
:101090008079C00728B1FFE70199029808430290C0
:1010A000FFE7029842F28001C4F202410860FFE7C4
:1010B000FFE700980130009092E605B0704700000D
:1010C00082B00190ADF8021001980069BDF80210DD
:1010D000084204D0FFE701208DF8010003E0002062
:1010E0008DF80100FFE79DF8010002B07047000095
:1010F00082B00190ADF802108DF801209DF801003A
:1011000028B1FFE7BDF802000199886104E0BDF84D
:10111000020001998862FFE702B0704740F2BC20EC
:10112000C2F200000068704783B0019000910198FE
:1011300090F8410020283BD1FFE7FFE7019890F8A5
:101140004000012804D1FFE702208DF80B0033E0B6
:101150000199012081F84000FFE7FFE70199242071
:1011600081F8410001980168086820F001000860DA
:1011700001980168086820F480500860009A01987E
:10118000016808681043086001980168086840F029
:10119000010008600199202081F84100FFE70199D2
:1011A000002081F84000FFE700208DF80B0003E0ED
:1011B00002208DF80B00FFE79DF80B0003B070478D
:1011C00084B002900191029890F84100202840D10B
:1011D000FFE7FFE7029890F84000012804D1FFE7FD
:1011E00002208DF80F0038E00299012081F84000BC
:1011F000FFE7FFE70299242081F841000298016887
:10120000086820F0010008600298006800680090FB
:10121000009820F4706000900199009840EA012045
:1012200000900098029909680860029801680868AF
:1012300040F0010008600299202081F84100FFE79A
:101240000299002081F84000FFE700208DF80F0090
:1012500003E002208DF80F00FFE79DF80F0004B0B7
:101260007047000080B582B00090009820B9FFE779
:1012700001208DF8070021E00099242081F8410029
:1012800000980168086820F001000860009800F0EC
:10129000CDFA009900204864009981F84100009936
:1012A0000863009981F84200FFE70099002081F867
:1012B0004000FFE700208DF80700FFE79DF80700DA
:1012C00002B080BD81B000900098406C01B07047C2
:1012D00081B00090009890F8410001B07047000084
:1012E00080B582B00090009820B9FFE701208DF80A
:1012F00007007BE0009890F8410040B9FFE70099B3
:10130000002081F84000009800F094FAFFE700996F
:10131000242081F8410000980168086820F001004D
:10132000086000980168406820F0706008610098CB
:101330000168886820F4004088600098C06801282F
:1013400007D1FFE700980168806840F4004088609A
:1013500006E000980168806840F404408860FFE778
:101360000098C068022807D1FFE700980168486824
:1013700040F40060486006E000980168486820F486
:1013800000604860FFE700980168486848F2000282
:10139000C0F200221043486000980168C86820F439
:1013A0000040C860009A1168106953699269184337
:1013B00040EA0220C860009A1168D069126A10439E
:1013C000086000980168086840F001000860009912
:1013D00000204864009A202182F841100099086397
:1013E000009981F842008DF80700FFE79DF807009B
:1013F00002B080BD80B588B0DDF828C00690ADF899
:1014000016100492ADF80E30069890F8410020288E
:1014100040F0F680FFE7FFE7069890F840000128CB
:1014200004D1FFE702208DF81F00EDE006990120AE
:1014300081F84000FFE7FFE7FFF770FE0290069893
:1014400002996A4611604FF400410122192304F009
:101450007DF820B1FFE701208DF81F00D4E0069948
:10146000222081F841000699102081F84200069957
:10147000002048640499069A5162BDF80E10069A3D
:101480005185069948630698408DB0F5807F14D346
:10149000FFE70699FF2008850698BDF8161090F81A
:1014A0002820EC4642F20043C8F20003CCF800309A
:1014B0004FF0807304F020F814E00698408D0699F0
:1014C00008850698BDF8161090F82820EC4642F2E0
:1014D0000043C8F20003CCF800304FF0007304F072
:1014E0000BF8FFE7FFE70698408D00285FD0FFE785
:1014F00006980A99029A04F08BF820B1FFE70120C0
:101500008DF81F0080E006980068406A0699496AD5
:1015100008700699486A013048620699088D0138BA
:1015200008850699488D013848850698408DE8B3AE
:10153000FFE70698008DC8BBFFE706980A9B029953
:101540006A4611608021002204F000F820B1FFE714
:1015500001208DF81F0057E00698408DB0F5807F80
:1015600011D3FFE70699FF2008850698BDF81610ED
:1015700090F82820EC460023CCF800304FF0807320
:1015800003F0BAFF11E00698408D06990885069889
:10159000BDF8161090F82820EC460023CCF8003057
:1015A0004FF0007303F0A8FFFFE7FFE79BE7069803
:1015B0000A99029A04F0E0F820B1FFE701208DF8C3
:1015C0001F0021E0069801682020C86106990A687A
:1015D00051684EF60003CFF600631940516006993A
:1015E00081F841000699002081F84200FFE7069942
:1015F000002081F84000FFE700208DF81F0003E085
:1016000002208DF81F00FFE79DF81F0008B080BD85
:1016100080B588B0DDF828C00690ADF816100492A9
:10162000ADF80E30069890F84100202840F0F58083
:10163000FFE7FFE7069890F84000012804D1FFE794
:1016400002208DF81F00ECE00699012081F840008F
:10165000FFE7FFE7FFF762FD0290069802996A46EE
:1016600011604FF400410122192303F06FFF20B1F4
:10167000FFE701208DF81F00D3E00699212081F8B3
:1016800041000699102081F8420006990020486424
:101690000499069A5162BDF80E10069A5185069972
:1016A00048630698408DB0F5807F14D3FFE7069914
:1016B000FF2008850698BDF8161090F82820EC4603
:1016C00042F20003C8F20003CCF800304FF0807300
:1016D00003F012FF14E00698408D069908850698DD
:1016E000BDF8161090F82820EC4642F20003C8F22C
:1016F0000003CCF800304FF0007303F0FDFEFFE76D
:10170000FFE70698408D00285ED0FFE706980A990B
:10171000029A04F083F820B1FFE701208DF81F0042
:101720007FE006980168406A007888620699486AF6
:10173000013048620699488D013848850699088D20
:10174000013808850698408DE8B3FFE70698008DBC
:10175000C8BBFFE706980A9B02996A461160802180
:10176000002203F0F3FE20B1FFE701208DF81F00F7
:1017700057E00698408DB0F5807F11D3FFE70699BA
:10178000FF2008850698BDF8161090F82820EC4632
:101790000023CCF800304FF0807303F0ADFE11E071
:1017A0000698408D069908850698BDF8161090F8A1
:1017B0002820EC460023CCF800304FF0007303F0F3
:1017C0009BFEFFE7FFE79CE706980A99029A03F061
:1017D000D3FF20B1FFE701208DF81F0021E006981C
:1017E00001682020C86106990A6851684EF6000316
:1017F000CFF6006319405160069981F841000699BF
:10180000002081F84200FFE70699002081F840009F
:10181000FFE700208DF81F0003E002208DF81F0075
:10182000FFE79DF81F0008B080BD000081B0009068
:1018300001B0704781B0009001B0704782B0019054
:1018400000208DF8030040F20040C4F2030000685D
:10185000C00720B1FFE701208DF803000AE040F245
:101860000041C4F20301086820F00400019A10430B
:101870000860FFE79DF8030002B0704740F20041A6
:10188000C4F20301086840F00100086000207047BE
:1018900040F24400C2F20000027840F2BC21C2F2E1
:1018A00000010868104408607047000080B582B0ED
:1018B000032000F0CFF802F0B3FB40F62041C4F261
:1018C0000241096801F00F0248F20241C0F600012E
:1018D000895CC84040F20801C2F20001086004209F
:1018E00003F002FA0F2000F011F820B1FFE7012009
:1018F0008DF8070005E000F093F800208DF8070050
:10190000FFE79DF8070002B080BD000080B586B0FB
:1019100004900020039040F24400C2F200000078DE
:1019200020B9FFE701208DF8170075E04EF2100096
:10193000CEF2000000684007002812D5FFE740F211
:101940000800C2F20000006840F24401C2F2000147
:101950000A784FF47A71B1FBF2F1B0FBF1F0039029
:1019600040E003F035FA02900298019040B1FFE7A1
:101970000198012816D0FFE70198022821D02FE016
:1019800040F20800C2F20000006840F24401C2F2D6
:1019900000010A784FF4FA51B1FBF2F1B0FBF1F01B
:1019A00003901EE040F24400C2F2000001784FF4C0
:1019B0007A70B0FBF1F14FF4FA40B0FBF1F0039014
:1019C0000FE040F24400C2F2000001784FF47A7058
:1019D000B0FBF1F14FF40040B0FBF1F0039000E0F8
:1019E000FFE7FFE7039803F0CDF920B1FFE70120FF
:1019F0008DF8170010E004994FF0FF30002200929C
:101A000000F010F80098049940F24802C2F2000277
:101A100011608DF81700FFE79DF8170006B080BD34
:101A20007047000080B586B0ADF8160004910392AF
:101A300005F052FE0290BDF916000190029804993B
:101A4000039A04F053F80146019805F04DFE06B0E4
:101A500080BD000080B582B00190019805F066FE5F
:101A600002B080BD89B0089040F63440C4F2024014
:101A700000686FF35F20059040F62840C4F20240F2
:101A8000016801F0030107910168C1F30521069186
:101A90000068C0F300100490049840F63841C4F286
:101AA0000241096889B2C90800FB01F000EE100A82
:101AB000B8EE400A8DED020A0698002800F03D813C
:101AC000FFE707980090012808D0FFE70098022858
:101AD00030D0FFE70098032849D065E040F6004089
:101AE000C4F202400068C0F3C10149F20000C0F234
:101AF000D030C84003909DED030AB8EE400A9DED3A
:101B0000061AB8EE411A80EE010A9DED051AB8EEEC
:101B1000411A9DED022A9FED8F3A82EE032A31EEA3
:101B2000021AB7EE002A31EE021A20EE010A8DEDFC
:101B3000010A65E09DED060AB8EE401A9FED860A9F
:101B400080EE010A9DED051AB8EE411A9DED022ABC
:101B50009FED803A82EE032A31EE021AB7EE002A98
:101B600031EE021A20EE010A8DED010A48E09DEDEA
:101B7000060AB8EE401A9FED760A80EE010A9DED46
:101B8000051AB8EE411A9DED022A9FED723A82EED7
:101B9000032A31EE021AB7EE002A31EE021A20EEC5
:101BA000010A8DED010A2BE040F60040C4F202402C
:101BB0000068C0F3C10149F20000C0F2D030C84053
:101BC00003909DED030AB8EE400A9DED061AB8EEAB
:101BD000411A80EE010A9DED051AB8EE411A9DEDFD
:101BE000022A9FED5C3A82EE032A31EE021AB7EE2A
:101BF000002A31EE021A20EE010A8DED010AFFE7FC
:101C000040F60040C4F2024000688001002827D559
:101C1000FFE740F62840C4F202400068C0030028F5
:101C200019D5FFE79DED010A40F63440C4F20240A9
:101C3000006880B2400A01EE100AB8EE411AB7EE11
:101C4000002A31EE021A80EE010A0898BCEEC00AA2
:101C500080ED000A03E0089900200860FFE703E038
:101C6000089900200860FFE740F60040C4F20240F7
:101C700000688001002827D5FFE740F62840C4F21D
:101C8000024000688003002819D5FFE79DED010A96
:101C900040F63440C4F202400068C0F3064001EE52
:101CA000100AB8EE411AB7EE002A31EE021A80EEA1
:101CB000010A0898BCEEC00A80ED010A03E0089909
:101CC00000204860FFE703E0089900204860FFE734
:101CD00040F60040C4F2024000688001002827D589
:101CE000FFE740F62840C4F20240006840030028A5
:101CF00019D5FFE79DED010A40F63440C4F20240D9
:101D00000068C0F3066001EE100AB8EE411AB7EEA3
:101D1000002A31EE021A80EE010A0898BCEEC00AD1
:101D200080ED020A03E0089900208860FFE703E0E5
:101D3000089900208860FFE707E008990020086004
:101D40000899486008998860FFE709B0704700BFAC
:101D500020BCBE4B000000460024744A89B00890A5
:101D600040F63C40C4F2024000686FF35F200590EB
:101D700040F62C40C4F20240016801F003010791D3
:101D80000168C1F3052106910068C0F300100490BA
:101D9000049840F64041C4F20241096889B2C9087A
:101DA00000FB01F000EE100AB8EE400A8DED020AC9
:101DB0000698002800F03D81FFE707980090012871
:101DC00008D0FFE70098022830D0FFE700980328EA
:101DD00049D065E040F60040C4F202400068C0F31C
:101DE000C10149F20000C0F2D030C84003909DED1F
:101DF000030AB8EE400A9DED061AB8EE411A80EECD
:101E0000010A9DED051AB8EE411A9DED022A9FEDDB
:101E10008F3A82EE032A31EE021AB7EE002A31EE33
:101E2000021A20EE010A8DED010A65E09DED060A19
:101E3000B8EE401A9FED860A80EE010A9DED051A64
:101E4000B8EE411A9DED022A9FED803A82EE032AF8
:101E500031EE021AB7EE002A31EE021A20EE010A24
:101E60008DED010A48E09DED060AB8EE401A9FED9F
:101E7000760A80EE010A9DED051AB8EE411A9DED35
:101E8000022A9FED723A82EE032A31EE021AB7EE71
:101E9000002A31EE021A20EE010A8DED010A2BE034
:101EA00040F60040C4F202400068C0F3C10149F2AC
:101EB0000000C0F2D030C84003909DED030AB8EE98
:101EC000400A9DED061AB8EE411A80EE010A9DED1A
:101ED000051AB8EE411A9DED022A9FED5C3A82EE9A
:101EE000032A31EE021AB7EE002A31EE021A20EE72
:101EF000010A8DED010AFFE740F60040C4F20240FE
:101F000000680001002827D5FFE740F62C40C4F206
:101F100002400068C003002819D5FFE79DED010AC3
:101F200040F63C40C4F20240006880B2400A01EE34
:101F3000100AB8EE411AB7EE002A31EE021A80EE0E
:101F4000010A0898BCEEC00A80ED000A03E0089977
:101F500000200860FFE703E0089900200860FFE721
:101F600040F60040C4F2024000680001002827D576
:101F7000FFE740F62C40C4F20240006880030028CE
:101F800019D5FFE79DED010A40F63C40C4F202403E
:101F90000068C0F3064001EE100AB8EE411AB7EE31
:101FA000002A31EE021A80EE010A0898BCEEC00A3F
:101FB00080ED010A03E0089900204860FFE703E094
:101FC000089900204860FFE740F60040C4F2024054
:101FD00000680001002827D5FFE740F62C40C4F236
:101FE000024000684003002819D5FFE79DED010A73
:101FF00040F63C40C4F202400068C0F3066001EEC7
:10200000100AB8EE411AB7EE002A31EE021A80EE3D
:10201000010A0898BCEEC00A80ED020A03E00899A4
:1020200000208860FFE703E0089900208860FFE750
:1020300007E00899002008600899486008998860BE
:10204000FFE709B0704700BF20BCBE4B0000004650
:102050000024744A80B592B0119110901098119993
:1020600080F00070084300285BD1FFE740F6F040A5
:10207000C4F20240016801F44071079100688007D2
:10208000002809D5FFE70798B0F5807F04D1FFE766
:102090004FF40040099042E040F6F040C4F20240A4
:1020A00000680001002809D5FFE70798B0F5007F18
:1020B00004D1FFE74FF4FA4009902FE040F60040CA
:1020C000C4F2024000688003002823D5FFE7079888
:1020D000B0F5407F1ED1FFE740F61C40C4F202403D
:1020E000006800F47C50B0F5007F0FD3FFE740F6A6
:1020F0001C40C4F202400068C0F3052147F64000CE
:10210000C0F27D10B0FBF1F0099002E000200990D0
:10211000FFE702E000200990FFE7FFE7FFE700F09C
:102120008EBF109805901199069180F00100084328
:10213000002800F09B80FFE70699059880F00200D8
:102140000843002800F0FC80FFE70699059880F01E
:1021500004000843002800F05D81FFE70699059818
:1021600080F480500843002800F0C081FFE7069902
:10217000059880F400500843002800F0B782FFE77C
:102180000699059880F480400843002800F00083F9
:10219000FFE70699059880F480300843002800F096
:1021A0004983FFE70699059880F40030084300282A
:1021B00000F0B983FFE70699059880F48020084372
:1021C000002800F05084FFE70699059880F400107D
:1021D0000843002800F0EF81FFE70699059880F09A
:1021E00080600843002800F09286FFE70699059872
:1021F00080F000600843002800F00B85FFE7069997
:10220000059880F080500843002800F07A85FFE7A9
:102210000699059880F000500843002800F0F885E2
:10222000FFE70598069981F004010843002800F0B3
:10223000BA84FFE70598069981F010010843002849
:1022400000F0BB86FFE70598069981F4007108430A
:10225000002800F01C82FFE70598069981F4805160
:102260000843002800F0238300F0E5BE40F6D84084
:10227000C4F20240006800F007000790079820B9F8
:10228000FFE701F0A5FE099058E040F60040C4F2D7
:1022900002400068000100280AD5FFE707980128DE
:1022A00006D1FFE70AA8FFF759FD0B98099044E013
:1022B00040F60040C4F2024000688007002812D5B2
:1022C000FFE7079803280ED1FFE740F60040C4F26D
:1022D00002400068C0F3C10149F20000C0F2D030F2
:1022E000C840099028E040F60040C4F2024000686F
:1022F000800500280AD5FFE70798042806D1FFE7E4
:1023000040F60010C0F23D00099014E040F6F040A5
:10231000C4F2024000688007002808D5FFE707984C
:10232000052804D1FFE74FF40040099002E00020A7
:102330000990FFE7FFE7FFE7FFE7FFE700F07EBE5A
:1023400040F6D840C4F20240006800F03800079020
:10235000079820B9FFE701F027FE099058E040F602
:102360000040C4F202400068000100280AD5FFE7DF
:102370000798082806D1FFE70AA8FFF7EFFC0B989B
:10238000099044E040F60040C4F202400068800733
:10239000002812D5FFE7079818280ED1FFE740F66E
:1023A0000040C4F202400068C0F3C10149F20000DD
:1023B000C0F2D030C840099028E040F60040C4F296
:1023C00002400068800500280AD5FFE7079820280A
:1023D00006D1FFE740F60010C0F23D00099014E07E
:1023E00040F6F040C4F2024000688007002808D59B
:1023F000FFE70798282804D1FFE74FF40040099031
:1024000002E000200990FFE7FFE7FFE7FFE7FFE7B3
:1024100000F014BE40F6D840C4F20240006800F458
:10242000E0700790079820B9FFE701F0BDFD099023
:102430005AE040F60040C4F2024000680001002863
:102440000AD5FFE70798402806D1FFE70AA8FFF75B
:1024500085FC0B98099046E040F60040C4F202402B
:1024600000688007002812D5FFE70798C0280ED122
:10247000FFE740F60040C4F202400068C0F3C1012B
:1024800049F20000C0F2D030C84009902AE040F67E
:102490000040C4F202400068800500280BD5FFE729
:1024A0000798B0F5807F06D1FFE740F60010C0F234
:1024B0003D00099015E040F6F040C4F2024000688B
:1024C0008007002809D5FFE70798B0F5A07F04D161
:1024D000FFE74FF40040099002E000200990FFE779
:1024E000FFE7FFE7FFE7FFE700F0A8BD40F6E040A9
:1024F000C4F20240006800F0E0600790079820B93D
:10250000FFE701F079FD099053E00798B0F1807F73
:1025100006D1FFE70AA8FFF721FC0B98099047E0D6
:1025200040F60040C4F2024000688007002813D53E
:10253000FFE70798B0F1407F0ED1FFE740F600407B
:10254000C4F202400068C0F3C10149F20000C0F2C9
:10255000D030C84009902AE040F60040C4F2024062
:102560000068800500280BD5FFE70798B0F1806F61
:1025700006D1FFE740F60010C0F23D00099015E0DB
:1025800040F6F040C4F2024000688007002809D5F8
:10259000FFE70798B0F1A06F04D1FFE74FF40040C8
:1025A000099002E000200990FFE7FFE7FFE7FFE75F
:1025B000FFE700F043BD40F6E840C4F20240006887
:1025C00000F007000790079820B9FFE701F0D2FC60
:1025D00009905AE00798012804D1FFE701F020FD97
:1025E000099051E00798022806D1FFE70AA8FFF7F3
:1025F000B5FB0C98099046E040F60040C4F202405A
:102600000068800300280AD5FFE70798032806D151
:10261000FFE747F64000C0F27D10099032E040F637
:102620000040C4F2024000688007002812D5FFE78E
:10263000079804280ED1FFE740F60040C4F202409C
:102640000068C0F3C10149F20000C0F2D030C840B8
:10265000099016E040F60040C4F202400068800590
:1026600000280AD5FFE70798052806D1FFE740F6BE
:102670000010C0F23D00099002E000200990FFE741
:10268000FFE7FFE7FFE7FFE7FFE700F0D7BC40F613
:10269000E840C4F20240006800F00800079040F6ED
:1026A000F040C4F2024000688007002807D5FFE729
:1026B000079820B9FFE74FF40040099014E040F676
:1026C000F040C4F2024000680001002808D5FFE78E
:1026D0000798082804D1FFE74FF4FA40099002E078
:1026E00000200990FFE7FFE700F0A8BC40F6E440B7
:1026F000C4F20240006800F440300790079820B907
:10270000FFE701F051FC099040E00798B0F5803FE9
:1027100006D1FFE70AA8FFF721FB0C98099034E0E7
:1027200040F60040C4F2024000688007002813D53C
:10273000FFE70798B0F5003F0ED1FFE740F60040F5
:10274000C4F202400068C0F3C10149F20000C0F2C7
:10275000D030C840099017E040F60040C4F2024073
:102760000068800500280BD5FFE70798B0F5403FCB
:1027700006D1FFE740F60010C0F23D00099002E0EC
:1027800000200990FFE7FFE7FFE7FFE700F056BCF6
:1027900040F6E440C4F20240006800F44020079094
:1027A000079820B9FFE701F0FFFB099040E0079888
:1027B000B0F5802F06D1FFE70AA8FFF7CFFA0C98F3
:1027C000099034E040F60040C4F2024000688007FF
:1027D000002813D5FFE70798B0F5002F0ED1FFE7CB
:1027E00040F60040C4F202400068C0F3C10149F263
:1027F0000000C0F2D030C840099017E040F6004019
:10280000C4F202400068800500280BD5FFE7079856
:10281000B0F5402F06D1FFE740F60010C0F23D00B2
:10282000099002E000200990FFE7FFE7FFE7FFE7DC
:1028300000F004BC40F6E440C4F20240006800F03E
:1028400040700790079820B9FFE701F0ADFB0990B1
:102850002BE00798B0F1807F06D1FFE70AA8FFF7C9
:102860007DFA0C9809901FE040F60040C4F2024047
:1028700000688007002813D5FFE70798B0F1007FB4
:102880000ED1FFE740F60040C4F202400068C0F3FA
:10289000C10149F20000C0F2D030C840099002E006
:1028A00000200990FFE7FFE7FFE700F0C7BB40F615
:1028B000E440C4F20240006800F0406007900798CE
:1028C00020B9FFE701F098FB09902BE00798B0F1E1
:1028D000806F06D1FFE70AA8FFF740FA0C9809902D
:1028E0001FE040F60040C4F2024000688007002864
:1028F00013D5FFE70798B0F1006F0ED1FFE740F660
:102900000040C4F202400068C0F3C10149F2000077
:10291000C0F2D030C840099002E000200990FFE7E3
:10292000FFE7FFE78AE340F6DC40C4F202400068BC
:1029300000F4E060079007980490A0B1FFE70498C6
:10294000B0F5807F13D0FFE70498B0F5407F14D036
:10295000FFE70498B0F5806F20D0FFE70498B0F54A
:10296000A06F2CD07BE001F047FB09907AE00AA829
:10297000FFF7F4F90A98099074E040F6F040C4F2C9
:10298000024000688007002804D5FFE74FF40040AC
:10299000099002E000200990FFE763E040F6F04074
:1029A000C4F2024000680001002804D5FFE74FF49C
:1029B000FA40099002E000200990FFE752E040F65B
:1029C000E840C4F20240006800F04040089040F641
:1029D0000040C4F2024000688007002811D5FFE7DC
:1029E000089870B9FFE740F60040C4F20240006862
:1029F000C0F3C10149F20000C0F2D030C8400990D4
:102A00002CE040F60040C4F2024000688005002837
:102A10000BD5FFE70898B0F1804F06D1FFE740F6ED
:102A20000010C0F23D00099017E040F60040C4F2EB
:102A300002400068800300280BD5FFE70898B0F13A
:102A4000004F06D1FFE747F64000C0F27D10099025
:102A500002E000200990FFE7FFE7FFE702E0002027
:102A60000990FFE7EAE240F6DC40C4F20240006869
:102A700000F4E040079007980390A0B1FFE70398A7
:102A8000B0F5805F13D0FFE70398B0F5405F14D036
:102A9000FFE70398B0F5804F20D0FFE70398B0F52B
:102AA000A04F2CD07BE001F07FFA09907AE00AA8D1
:102AB000FFF754F90A98099074E040F6F040C4F228
:102AC000024000688007002804D5FFE74FF400406B
:102AD000099002E000200990FFE763E040F6F04033
:102AE000C4F2024000680001002804D5FFE74FF45B
:102AF000FA40099002E000200990FFE752E040F61A
:102B0000E840C4F20240006800F04040089040F6FF
:102B10000040C4F2024000688007002811D5FFE79A
:102B2000089870B9FFE740F60040C4F20240006820
:102B3000C0F3C10149F20000C0F2D030C840099092
:102B40002CE040F60040C4F20240006880050028F6
:102B50000BD5FFE70898B0F1804F06D1FFE740F6AC
:102B60000010C0F23D00099017E040F60040C4F2AA
:102B700002400068800300280BD5FFE70898B0F1F9
:102B8000004F06D1FFE747F64000C0F27D100990E4
:102B900002E000200990FFE7FFE7FFE702E00020E6
:102BA0000990FFE74AE240F6E840C4F202400068BC
:102BB00000F44070079040F60040C4F20240006804
:102BC0008003002809D5FFE7079830B9FFE747F6EB
:102BD0004000C0F27D1009901AE00798B0F5807FA0
:102BE00006D1FFE70DA8FEF73DFF0E9809900EE015
:102BF0000798B0F5007F06D1FFE70AA8FFF7AEF807
:102C00000B98099002E000200990FFE7FFE7FFE73B
:102C100014E240F6E040C4F20240006800F0070011
:102C2000079007980290042867D80299DFE801F01E
:102C30000309650F15000DA8FEF714FF0E98099003
:102C40005EE00AA8FFF78AF80A98099058E048F26F
:102C50000000C0F2BB00099052E040F6E840C4F228
:102C60000240006800F04040089040F60040C4F286
:102C7000024000688007002811D5FFE7089870B966
:102C8000FFE740F60040C4F202400068C0F3C10113
:102C900049F20000C0F2D030C84009902CE040F664
:102CA0000040C4F202400068800500280BD5FFE711
:102CB0000898B0F1804F06D1FFE740F60010C0F24F
:102CC0003D00099017E040F60040C4F20240006861
:102CD000800300280BD5FFE70898B0F1004F06D11C
:102CE000FFE747F64000C0F27D10099002E00020A7
:102CF0000990FFE7FFE7FFE702E000200990FFE708
:102D00009CE140F6E040C4F20240006800F0380068
:102D1000079007980190202800F276800199DFE85B
:102D200001F0117373737373737317737373737326
:102D3000737373737373737373731D7373737373B9
:102D4000737323000DA8FEF78DFE0E9809905EE0C8
:102D50000AA8FFF703F80A98099058E048F2000023
:102D6000C0F2BB00099052E040F6E840C4F20240D5
:102D7000006800F04040089040F60040C4F2024075
:102D800000688007002811D5FFE7089870B9FFE7B1
:102D900040F60040C4F202400068C0F3C10149F2AD
:102DA0000000C0F2D030C84009902CE040F600404E
:102DB000C4F202400068800500280BD5FFE70898A0
:102DC000B0F1804F06D1FFE740F60010C0F23D00A1
:102DD000099017E040F60040C4F20240006880030A
:102DE00000280BD5FFE70898B0F1004F06D1FFE7A8
:102DF00047F64000C0F27D10099002E000200990E3
:102E0000FFE7FFE7FFE702E000200990FFE715E199
:102E100040F6E040C4F20240006800F4E070079021
:102E20000798009068B1FFE7009840280FD0FFE7AF
:102E30000098C02811D0FFE70098B0F5807F12D02D
:102E400061E00DA8FEF70EFE0E9809905EE00AA85C
:102E5000FEF784FF0A98099058E048F20000C0F29B
:102E6000BB00099052E040F6E840C4F2024000681E
:102E700000F04040089040F60040C4F20240006874
:102E80008007002811D5FFE7089870B9FFE740F6E2
:102E90000040C4F202400068C0F3C10149F20000E2
:102EA000C0F2D030C84009902CE040F60040C4F297
:102EB00002400068800500280BD5FFE70898B0F1B4
:102EC000804F06D1FFE740F60010C0F23D000990A8
:102ED00017E040F60040C4F202400068800300287A
:102EE0000BD5FFE70898B0F1004F06D1FFE747F692
:102EF0004000C0F27D10099002E000200990FFE739
:102F0000FFE7FFE702E000200990FFE796E040F6C8
:102F1000E840C4F20240006800F03000079040F63C
:102F20000040C4F2024000688004002809D5FFE791
:102F3000079830B9FFE746F60040C0F2DC20099060
:102F40003AE040F60040C4F20240006880010028E8
:102F50000AD5FFE70798102806D1FFE70DA8FEF76E
:102F600081FD0E98099026E040F6F040C4F2024040
:102F700000688007002808D5FFE70798202804D1BB
:102F8000FFE74FF40040099014E040F6F040C4F22F
:102F9000024000680001002808D5FFE707983028A4
:102FA00004D1FFE74FF4FA40099002E000200990B5
:102FB000FFE7FFE7FFE7FFE740E040F6E440C4F249
:102FC0000240006800F0300007900798102806D1F2
:102FD000FFE70DA8FEF746FD0E9809902EE040F69B
:102FE0000040C4F202400068000100280AD5FFE753
:102FF0000798202806D1FFE70AA8FEF7AFFE0B9836
:10300000099016E040F60040C4F2024000688004D7
:1030100000280AD5FFE70798302806D1FFE746F6D3
:103020000040C0F2DC20099002E000200990FFE798
:10303000FFE7FFE702E000200990FFE7FFE70998BC
:1030400012B080BD80B596B0159000208DF84B0071
:103050008DF84A001598C078C00760B1FFE740F6C8
:10306000E841C4F20241086820F04040159A126B12
:1030700010430860FFE715980068C00780B3FFE7BA
:103080001598406B1190052810D81199DFE801F0D0
:1030900003040E0B0C0D0DE01598083002F05EFDD8
:1030A0008DF84B0006E005E004E003E001208DF818
:1030B0004B00FFE79DF84B0060B9FFE740F6D841B1
:1030C000C4F20241086820F00700159A526B1043C1
:1030D000086004E09DF84B008DF84A00FFE7FFE729
:1030E000159800788007002840F14380FFE7159885
:1030F000806B1090282822D81099DFE801F0152065
:1031000020202020202016202020202020202020C9
:103110002020202020201D202020202020201E20B4
:103120002020202020201F000DE01598083002F0FC
:1031300015FD8DF84B0006E005E004E003E00120FA
:103140008DF84B00FFE79DF84B0060B9FFE740F6B4
:10315000D841C4F20241086820F03800159A926BF9
:103160001043086004E09DF84B008DF84A00FFE72B
:10317000FFE715980078400700283CD5FFE7159831
:10318000C06B0F9090B1FFE70F9840280FD0FFE77A
:103190000F98C02812D0FFE70F98B0F5807F0ED0AF
:1031A000FFE70F98B0F5A07F0AD00AE00DE0159870
:1031B000083002F0D3FC8DF84B0006E005E004E097
:1031C00003E001208DF84B00FFE79DF84B0060B94C
:1031D000FFE740F6D841C4F20241086820F4E070ED
:1031E000159AD26B1043086004E09DF84B008DF8EF
:1031F0004A00FFE7FFE715984078C00600283ED553
:10320000FFE71598006C0E90A0B1FFE70E98B0F1A3
:10321000807F10D0FFE70E98B0F1407F12D0FFE71B
:103220000E98B0F1806F0ED0FFE70E98B0F1A06F4E
:103230000AD00AE00DE01598083002F08FFC8DF8F6
:103240004B0006E005E004E003E001208DF84B00B0
:10325000FFE79DF84B0060B9FFE740F6E041C4F29C
:103260000241086820F0E060159A126C1043086073
:1032700004E09DF84B008DF84A00FFE7FFE7159842
:1032800040788006002838D5FFE71598406C0D90EF
:1032900078B1FFE70D98B0F5803F0BD0FFE70D98B0
:1032A000B0F5003F0DD0FFE70D98B0F5403F09D0D5
:1032B00009E00CE01598083002F050FC8DF84B0046
:1032C00005E004E003E001208DF84B00FFE79DF8E6
:1032D0004B0060B9FFE740F6E441C4F202410868E0
:1032E00020F44030159A526C1043086004E09DF8B9
:1032F0004B008DF84A00FFE7FFE71598407840063D
:10330000002838D5FFE71598806C0C9078B1FFE75E
:103310000C98B0F5802F0BD0FFE70C98B0F5002F7C
:103320000DD0FFE70C98B0F5402F09D009E00CE074
:103330001598083002F012FC8DF84B0005E004E00F
:1033400003E001208DF84B00FFE79DF84B0060B9CA
:10335000FFE740F6E441C4F20241086820F440204F
:10336000159A926C1043086004E09DF84B008DF8AC
:103370004A00FFE7FFE715988078C00790B3FFE7A2
:103380001598C06C0B9050B1FFE70B98B0F1807F9F
:1033900006D0FFE70B98B0F1007F08D008E00BE003
:1033A0001598083002F0DAFB8DF84B0004E003E0DA
:1033B00001208DF84B00FFE79DF84B0060B9FFE757
:1033C00040F6E441C4F20241086820F04070159ACA
:1033D000D26C1043086004E09DF84B008DF84A0061
:1033E000FFE7FFE715984079C006002832D5FFE7D0
:1033F0001598006D0A9050B1FFE70A98B0F1806F00
:1034000006D0FFE70A98B0F1006F08D008E00BE0A3
:103410001598083002F0A2FB8DF84B0004E003E0A1
:1034200001208DF84B00FFE79DF84B0060B9FFE7E6
:1034300040F6E441C4F20241086820F04060159A69
:10344000126D1043086004E09DF84B008DF84A00AF
:10345000FFE7FFE7159840790007002811D5FFE73F
:10346000FFE740F61C41C4F20241086820F4004026
:1034700008601598D0F88020086810430860FFE7BE
:10348000FFE715988078800700283ED5FFE715985C
:10349000406D0990A0B1FFE70998B0F5807F10D08A
:1034A000FFE70998B0F5407F12D0FFE70998B0F523
:1034B000806F0ED0FFE70998B0F5A06F0AD00AE040
:1034C0000DE01598083002F049FB8DF84B0006E03E
:1034D00005E004E003E001208DF84B00FFE79DF8D4
:1034E0004B0060B9FFE740F6DC41C4F202410868D6
:1034F00020F4E060159A526D1043086004E09DF8D6
:103500004B008DF84A00FFE7FFE7159880784007E9
:1035100000283ED5FFE71598806D0890A0B1FFE721
:103520000898B0F5805F10D0FFE70898B0F5405FCD
:1035300012D0FFE70898B0F5804F0ED0FFE708984B
:10354000B0F5A04F0AD00AE00DE01598083002F05F
:1035500005FB8DF84B0006E005E004E003E00120E8
:103560008DF84B00FFE79DF84B0060B9FFE740F690
:10357000DC41C4F20241086820F4E040159A926DE3
:103580001043086004E09DF84B008DF84A00FFE707
:10359000FFE7159880788006002832D5FFE7159858
:1035A000406E0790022809D3FFE70798022806D04B
:1035B000FFE707980338032808D308E00BE01598C5
:1035C000083002F0CBFA8DF84B0004E003E0012054
:1035D0008DF84B00FFE79DF84B0060B9FFE740F620
:1035E000E841C4F20241086820F00700159A526EC3
:1035F0001043086004E09DF84B008DF84A00FFE797
:10360000FFE7159840798007002825D5FFE7159832
:10361000806E069020B1FFE70698082801D001E0EF
:1036200004E003E001208DF84B00FFE79DF84B001C
:1036300060B9FFE740F6E841C4F20241086820F0B3
:103640000800159A926E1043086004E09DF84B0044
:103650008DF84A00FFE7FFE71598C078800700283B
:1036600040F1B180FFE740F62401C4F2024108684E
:1036700040F001000860FDF751FD1390FFE740F6B0
:103680002400C4F202400068C00760B9FFE7FDF7FC
:1036900045FD1399401A032804D3FFE703208DF852
:1036A0004B0000E0EBE79DF84B00002840F08580E0
:1036B000FFE740F6F040C4F20240006800F44070BA
:1036C00014901498C8B1FFE714981599896F88422F
:1036D00013D0FFE740F6F041C4F20241086820F43D
:1036E00040701490086840F480300860086820F446
:1036F0008030086014980860FFE79DF85000C0070C
:10370000E0B1FFE7FDF70AFD1390FFE740F6F04058
:10371000C4F202400068800700280ED4FFE7FDF7DE
:10372000FDFC1399401A41F28931884204D3FFE726
:1037300003208DF84B0000E0E8E7FFE79DF84B0021
:10374000A8BBFFE7FFE71598806F00F44070B0F565
:10375000407F12D1FFE740F61C41C4F202410868E5
:1037600020F47C50159A926F4FF6F043C0F6FF7329
:103770001A4040EA1210086008E040F61C41C4F20A
:103780000241086820F47C500860FFE740F6F041F1
:10379000C4F20241086820F4407008601598826FF6
:1037A0006FF31F32086810430860FFE704E09DF8DC
:1037B0004B008DF84A00FFE704E09DF84B008DF8C0
:1037C0004A00FFE7FFE71598C0784007002837D583
:1037D000FFE71598006E059060B1FFE70598102887
:1037E00009D0FFE7059820280ED0FFE7059830287C
:1037F0000BD00BE00EE040F62841C4F2024108680D
:1038000040F40030086005E004E003E001208DF89A
:103810004B00FFE79DF84B0060B9FFE740F6E84139
:10382000C4F20241086820F03000159A126E10436D
:10383000086004E09DF84B008DF84A00FFE7FFE7C1
:103840001598C0780007002837D5FFE71598C06E97
:103850000490042817D80499DFE801F0030C15132D
:10386000140040F62841C4F20241086840F40030D8
:1038700008600CE01598083002F070F98DF84B00E4
:1038800005E004E003E001208DF84B00FFE79DF820
:103890004B0060B9FFE740F6E041C4F2024108681E
:1038A00020F00700159AD26E1043086004E09DF8DE
:1038B0004B008DF84A00FFE7FFE71598C078C00677
:1038C000002845D5FFE71598006F0390202825D8DC
:1038D0000399DFE801F011232323232323231A2351
:1038E00023232323232323232323232323232123AA
:1038F000232323232323220040F62841C4F202413C
:10390000086840F4003008600CE01598083002F0B8
:1039100025F98DF84B0005E004E003E001208DF867
:103920004B00FFE79DF84B0060B9FFE740F6E04130
:10393000C4F20241086820F03800159A126F104353
:10394000086004E09DF84B008DF84A00FFE7FFE7B0
:103950001598C078800600283ED5FFE71598406F7F
:10396000029068B1FFE70298402812D0FFE7029862
:10397000C02815D0FFE70298B0F5807F11D011E084
:1039800040F62841C4F20241086840F40030086063
:103990000CE01598083002F0E1F88DF84B0005E0D6
:1039A00004E003E001208DF84B00FFE79DF84B0099
:1039B00060B9FFE740F6E041C4F20241086820F434
:1039C000E070159A526F1043086004E09DF84B00B8
:1039D0008DF84A00FFE7FFE71598007940070028B7
:1039E0003AD5FFE71598C06D019050B1FFE70198F7
:1039F000B0F5807F06D0FFE70198B0F5007F0AD0D0
:103A000010E013E040F62841C4F20241086840F497
:103A1000003008600AE01598083002F09FF88DF831
:103A20004B0003E001208DF84B00FFE79DF84B00B1
:103A300060B9FFE740F6E841C4F20241086820F4AB
:103A40004070159AD26D1043086004E09DF84B0059
:103A50008DF84A00FFE7FFE715980079C0060028B7
:103A600039D5FFE71598C06F0090102808D0FFE700
:103A7000009820280DD0FFE70098302810D010E0E3
:103A800040F62841C4F20241086840F40030086062
:103A90000BE01598083002F061F88DF84B0004E057
:103AA00003E001208DF84B00FFE79DF84B0060B963
:103AB000FFE740F6E441C4F20241086820F030001C
:103AC000159AD26F1043086004E09DF84B008DF802
:103AD0004A00FFE7FFE79DF84A0016B080BD0000EE
:103AE00080B586B004900391049820B9FFE70120C7
:103AF0008DF817003AE2039842F20001C4F2020185
:103B0000096801F00F01884216D9FFE742F2000070
:103B1000C4F20200016821F00F01039A1143016011
:103B2000006800F00F000399884204D0FFE70120ED
:103B30008DF817001AE2FFE704980078C006002805
:103B40001BD5FFE70498406940F62041C4F20241CA
:103B5000096801F4E041B0EB112F0DD9FFE740F601
:103B60002041C4F20241086820F4E040049A5269FE
:103B700040EA02200860FFE7FFE7049800780007AA
:103B800000281BD5FFE70498006940F62041C4F2E5
:103B90000241096801F4E061B0EB111F0DD9FFE7A4
:103BA00040F62041C4F20241086820F4E060049A23
:103BB000126940EA02100860FFE7FFE70498007806
:103BC0004007002819D5FFE70498C06840F6204157
:103BD000C4F20241096801F0700188420CD9FFE784
:103BE00040F62041C4F20241086820F07000049AB7
:103BF000D26810430860FFE7FFE704980078800769
:103C0000002819D5FFE70498806840F62041C4F2E7
:103C10000241096801F00F0188420CD9FFE740F624
:103C20002041C4F20241086820F00F00049A926813
:103C300010430860FFE7FFE704980078C0070028FA
:103C400000F0D180FFE70498406803280ED1FFE719
:103C500040F60040C4F2024000688001002804D40D
:103C6000FFE701208DF8170080E135E004984068F7
:103C700002280ED1FFE740F60040C4F2024000687F
:103C80008003002804D4FFE701208DF817006DE1C0
:103C900021E00498406801280ED1FFE740F600407B
:103CA000C4F2024000688005002804D4FFE7012028
:103CB0008DF817005AE10DE040F60040C4F20240D2
:103CC00000688007002804D4FFE701208DF8170062
:103CD0004CE1FFE7FFE7FFE740F61C41C4F2024179
:103CE000086820F00300049A526810430860FDF74A
:103CF00015FA01900498406803281AD1FFE7FFE7FE
:103D000040F61C40C4F20240006800F01800182879
:103D10000ED0FFE7FDF702FA0199401A41F289310E
:103D2000884204D3FFE703208DF817001EE1E7E780
:103D300058E00498406802281AD1FFE7FFE740F6F0
:103D40001C40C4F20240006800F0180010280ED099
:103D5000FFE7FDF7E3F90199401A41F28931884202
:103D600004D3FFE703208DF81700FFE0E7E738E012
:103D70000498406801281AD1FFE7FFE740F61C408D
:103D8000C4F20240006800F0180008280ED0FFE7D7
:103D9000FDF7C4F90199401A41F28931884204D3F0
:103DA000FFE703208DF81700E0E0E7E718E0FFE702
:103DB00040F61C40C4F20240006810F0180F0ED00C
:103DC000FFE7FDF7ABF90199401A41F289318842CA
:103DD00004D3FFE703208DF81700C7E0E8E7FFE70B
:103DE000FFE7FFE7FFE7049800788007002819D570
:103DF000FFE70498806840F62041C4F20241096858
:103E000001F00F0188420CD2FFE740F62041C4F2D6
:103E10000241086820F00F00049A9268104308607D
:103E2000FFE7FFE7039842F20001C4F202010968CC
:103E300001F00F01884216D2FFE742F20000C4F2FF
:103E40000200016821F00F01039A1143016000682C
:103E500000F00F000399884204D0FFE701208DF89D
:103E6000170083E0FFE7049800784007002819D581
:103E7000FFE70498C06840F62041C4F20241096897
:103E800001F0700188420CD2FFE740F62041C4F2F5
:103E90000241086820F07000049AD268104308605C
:103EA000FFE7FFE704980078000700281BD5FFE72D
:103EB0000498006940F62041C4F20241096801F407
:103EC000E061B0EB111F0DD2FFE740F62041C4F2D4
:103ED0000241086820F4E060049A126940EA021086
:103EE0000860FFE7FFE704980078C00600281BD5AC
:103EF000FFE70498406940F62041C4F20241096896
:103F000001F4E041B0EB112F0DD2FFE740F6204164
:103F1000C4F20241086820F4E040049A526940EA81
:103F200002200860FFE7FFE700F07AF840F6204142
:103F3000C4F20241096801F00F0248F20241C0F6E2
:103F40000001895CC84040F20801C2F2000108602B
:103F500040F24800C2F200000068FDF7D7FC8DF87F
:103F60000B009DF80B008DF81700FFE79DF8170078
:103F700006B080BD80B500F053F840F62041C4F291
:103F80000241096801F00F0248F20241C0F6000147
:103F9000895C01F01F0120FA01F140F20800C2F231
:103FA00000000160006880BD80B5FFF7E3FF40F6C8
:103FB0002041C4F202410968C1F3021248F21241E1
:103FC000C0F60001895C01F01F01C84080BD0000FF
:103FD00080B5FFF7CFFF40F62041C4F202410968E7
:103FE000C1F3022248F21241C0F60001895C01F0DF
:103FF0001F01C84080BD000080B5FFF7BBFF40F641
:104000002041C4F202410968C1F3023248F2124170
:10401000C0F60001895C01F01F01C84080BD0000AE
:1040200089B040F61C40C4F20240006800F018005D
:10403000082806D1FFE740F60010C0F23D000490CA
:1040400048E140F61C40C4F20240006810F0180F2E
:1040500021D1FFE740F60040C4F20240006800F0C2
:1040600020010020B0EB511F0ED0FFE740F60040CA
:10407000C4F202400068C0F3C10149F20000C0F27E
:10408000D030C840049005E049F20000C0F2D030C2
:104090000490FFE71DE140F61C40C4F202400068B6
:1040A00000F01800102806D1FFE747F64000C0F2E4
:1040B0007D1004900CE140F61C40C4F20240006800
:1040C00000F01800182840F0FC80FFE740F6284078
:1040D000C4F20240016801F0030108910168C1F3D4
:1040E000052106910068C0F300100590059840F680
:1040F0003841C4F20241096889B2C90800FB01F0E5
:1041000000EE100AB8EE400A8DED020A069800286B
:1041100000F0D380FFE708980090012809D0FFE75E
:104120000098022800F08D80FFE70098032864D0F3
:1041300088E040F60040C4F20240006800F0200130
:104140000020B0EB511F33D0FFE740F60040C4F22F
:1041500002400068C0F3C10149F20000C0F2D03053
:10416000C84003909DED030AB8EE400A9DED061A83
:10417000B8EE411A80EE010A40F63440C4F2024023
:1041800000686FF35F2001EE100AB8EE411A9DED52
:10419000022A9FED533A82EE032A31EE021AB7EE5D
:1041A000002A31EE021A20EE010A8DED010A23E009
:1041B0009DED060AB8EE401A9FED4A0A80EE010A0C
:1041C00040F63440C4F2024000686FF35F2001EE15
:1041D000100AB8EE411A9DED022A9FED413A82EE97
:1041E000032A31EE021AB7EE002A31EE021A20EE4F
:1041F000010A8DED010AFFE748E09DED060AB8EEE1
:10420000401A9FED360A80EE010A40F63440C4F2AF
:10421000024000686FF35F2001EE100AB8EE411A09
:104220009DED022A9FED2E3A82EE032A31EE021A0C
:10423000B7EE002A31EE021A20EE010A8DED010AD6
:1042400024E0FFE79DED060AB8EE401A9FED260A2E
:1042500080EE010A40F63440C4F2024000686FF379
:104260005F2001EE100AB8EE411A9DED022A9FED83
:104270001C3A82EE032A31EE021AB7EE002A31EE22
:10428000021A20EE010A8DED010AFFE740F63440E4
:10429000C4F20240006881B2012000EB5120079077
:1042A0009DED010A9DED071AB8EE411A80EE010A54
:1042B000BCEEC00A8DED040A02E000200490FFE786
:1042C00005E049F20000C0F2D0300490FFE7FFE7BC
:1042D000FFE7FFE7049809B0704700BF20BCBE4B62
:1042E000000000460024744C0024744A80B588B055
:1042F0000690069828B9FFE701208DF81F0000F00E
:10430000EFBC40F61C40C4F20240006800F0180008
:10431000049040F62840C4F20240006800F0030018
:10432000039006980078C006002840F18080FFE7DF
:104330000498082808D0FFE7049818281DD1FFE743
:104340000398022819D1FFE70698C06928B9FFE74A
:1043500001208DF81F0000F0C3BCFFE740F61841B4
:10436000C4F20241086820F47C10069A126A40EAFE
:1043700002400860FFE7FFE758E00698C06988B38D
:10438000FFE740F60041C4F20241086840F4807043
:104390000860FCF7C3FE0590FFE740F60040C4F25A
:1043A00002400068800500280DD4FFE7FCF7B6FE48
:1043B0000599401A032805D3FFE703208DF81F0055
:1043C00000F08EBCE9E7FFE740F61841C4F2024175
:1043D000086820F47C10069A126A40EA02400860DD
:1043E000FFE722E040F60041C4F20241086820F4F1
:1043F00080700860FCF792FE0590FFE740F60040F1
:10440000C4F202400068800500280DD5FFE7FCF7E4
:1044100085FE0599401A032805D3FFE703208DF890
:104420001F0000F05DBCE9E7FFE7FFE7FFE7069844
:104430000078C007002800F0B980FFE70498102832
:1044400008D0FFE7049818280ED1FFE70398032847
:104450000AD1FFE70698406828B9FFE701208DF8E8
:104460001F0000F03DBCA0E0FFE706984068B0F5F3
:10447000803F09D1FFE740F60041C4F202410868DD
:1044800040F48030086056E00698406888B9FFE73D
:1044900040F60041C4F20241086820F48030086010
:1044A000086820F480100860086820F48020086004
:1044B00040E006984068B0F5A02F11D1FFE740F624
:1044C0000041C4F20241086840F480200860086896
:1044D00020F480100860086840F48030086028E00C
:1044E00006984068B0F5A81F11D1FFE740F60041DB
:1044F000C4F20241086840F480200860086840F473
:1045000080100860086840F48030086010E040F6D1
:104510000041C4F20241086820F480300860086855
:1045200020F480200860086820F480100860FFE70D
:10453000FFE7FFE7FFE7FFE706984068D0B1FFE736
:10454000FCF7ECFD0590FFE740F60040C4F20240A6
:104550000068800300280CD4FFE7FCF7DFFD059915
:10456000401A652804D3FFE703208DF81F00B7E346
:10457000EAE719E0FCF7D2FD0590FFE740F60040BE
:10458000C4F202400068800300280CD5FFE7FCF766
:10459000C5FD0599401A652804D3FFE703208DF86F
:1045A0001F009DE3EAE7FFE7FFE7FFE706980078D3
:1045B0008007002840F1C380FFE7049840B1FFE77F
:1045C000049818285ED1FFE7039801285AD1FFE725
:1045D0000698C06820B9FFE701208DF81F007FE32F
:1045E000049840BBFFE740F60040C4F20240006878
:1045F00000F018000699096988421BD0FFE740F6D1
:104600000041C4F20241086820F01800069A1269BD
:1046100010430860FFF7AEFC40F24800C2F2000011
:104620000068FDF773F920B1FFE701208DF81F0046
:1046300056E3FFE7FFE7FCF771FD0590FFE740F663
:104640000040C4F202400068800700280CD4FFE755
:10465000FCF764FD0599401A032804D3FFE7032003
:104660008DF81F003CE3EAE740F61041C4F2024136
:10467000086820F4FE00069A526940EA0240086089
:10468000FFE75BE00698C068A8B3FFE740F600418B
:10469000C4F20241086820F01800069A126910431B
:1046A0000860086840F001000860FCF737FD0590DD
:1046B000FFE740F60040C4F202400068800700288F
:1046C0000CD4FFE7FCF72AFD0599401A032804D310
:1046D000FFE703208DF81F0002E3EAE740F61041F0
:1046E000C4F20241086820F4FE00069A526940EACA
:1046F0000240086021E040F60041C4F2024108682F
:1047000020F001000860FCF709FD0590FFE740F686
:104710000040C4F202400068800700280CD5FFE783
:10472000FCF7FCFC0599401A032804D3FFE703209B
:104730008DF81F00D4E2EAE7FFE7FFE7FFE70698FE
:1047400000780007002849D5FFE70698806910B374
:10475000FFE740F6F041C4F20241086840F0806093
:104760000860FCF7DBFC0590FFE740F6F040C4F280
:1047700002400068000100280CD4FFE7FCF7CEFCE3
:104780000599401A032804D3FFE703208DF81F0082
:10479000A6E2EAE721E040F6F041C4F202410868EF
:1047A00020F080600860FCF7B9FC0590FFE740F658
:1047B000F040C4F202400068000100280CD5FFE779
:1047C000FCF7ACFC0599401A032804D3FFE703204B
:1047D0008DF81F0084E2EAE7FFE7FFE7069800781C
:1047E0004007002840F1CC80FFE740F62400C4F2E7
:1047F00002400068C00708BBFFE740F62401C4F28E
:104800000241086840F001000860FCF787FC059051
:10481000FFE740F62400C4F202400068C00760B918
:10482000FFE7FCF77BFC0599401A032804D3FFE758
:1048300003208DF81F0053E2EBE7FFE7FFE7069840
:104840008068012809D1FFE740F6F041C4F2024137
:10485000086840F00100086054E00698806888B954
:10486000FFE740F6F041C4F20241086820F0010081
:104870000860086820F080000860086820F00400E4
:1048800008603EE006988068052811D1FFE740F6F1
:10489000F041C4F20241086840F004000860086872
:1048A00020F080000860086840F00100086027E000
:1048B00006988068852811D1FFE740F6F041C4F2E0
:1048C0000241086840F004000860086840F0800079
:1048D0000860086840F00100086010E040F6F04110
:1048E000C4F20241086820F001000860086820F066
:1048F00004000860086820F080000860FFE7FFE718
:10490000FFE7FFE7FFE706988068E0B1FFE7FCF705
:1049100005FC0590FFE740F6F040C4F20240006855
:10492000800700280ED4FFE7FCF7F8FB0599401A32
:1049300041F28931884204D3FFE703208DF81F003C
:10494000CEE1E8E71BE0FCF7E9FB0590FFE740F666
:10495000F040C4F202400068800700280ED5FFE74F
:10496000FCF7DCFB0599401A41F28931884204D3F7
:10497000FFE703208DF81F00B2E1E8E7FFE7FFE75C
:10498000069800788006002849D5FFE70698406A17
:1049900010B3FFE740F60041C4F20241086840F45A
:1049A00080500860FCF7BAFB0590FFE740F6004036
:1049B000C4F202400068800400280CD4FFE7FCF732
:1049C000ADFB0599401A032804D3FFE703208DF8B7
:1049D0001F0085E1EAE721E040F60041C4F2024110
:1049E000086820F480500860FCF798FB0590FFE70A
:1049F00040F60040C4F202400068800400280CD554
:104A0000FFE7FCF78BFB0599401A032804D3FFE767
:104A100003208DF81F0063E1EAE7FFE7FFE7069850
:104A2000806A002800F05881FFE70498182800F0F9
:104A3000D580FFE70698806A022840F0A180FFE752
:104A400040F60041C4F20241086820F0807008601E
:104A5000FCF764FB0590FFE740F60040C4F202401B
:104A60000068800100280CD5FFE7FCF757FB05998B
:104A7000401A032804D3FFE703208DF81F002FE11D
:104A8000EAE7FFE740F62841C4F20241086843F62E
:104A900003729043069BDA6A1B6B42EA03221043BF
:104AA00008600699486BD1F838C0CB6B0A6C0138A6
:104AB0006FF35F204FF60061CFF6FF7101EB4C21E1
:104AC00089B208440021CFF6FF7101EB034101F4E4
:104AD000FE0108444FF07F4101EB026101F0FE410D
:104AE000084440F63441C4F202410860FFE740F652
:104AF0002841C4F202410091086820F010000860CB
:104B00000698C06CC00040F63842C4F20242106001
:104B1000086840F010000860086820F00C00069A51
:104B2000526C10430860086820F02000069A926CCE
:104B300010430860086840F48030086040F6004187
:104B4000C4F20241086840F080700860FCF7E6FAA1
:104B50000590FFE740F60040C4F202400068800183
:104B600000280CD4FFE7FCF7D9FA0599401A03286E
:104B700004D3FFE703208DF81F00B1E0EAE72CE043
:104B800040F60041C4F20241086820F080700860DD
:104B9000FCF7C4FA0590FFE740F60040C4F202407B
:104BA0000068800100280CD5FFE7FCF7B7FA0599EB
:104BB000401A032804D3FFE703208DF81F008FE07D
:104BC000EAE740F62841C4F2024108684FF6FC7259
:104BD000CFF6F87210400860FFE77CE040F628400E
:104BE000C4F202400068029040F63440C4F2024031
:104BF000006801900698806A012837D0FFE7029884
:104C000000F003000699C96A88422FD1FFE7029895
:104C100000F47C510698006BB0EB112F26D1FFE712
:104C200001986FF35F200699496B013988421DD1C5
:104C3000FFE7BDF804100698806B0138B0EB512FE8
:104C400014D1FFE7019800F4FE010698C06B01380B
:104C5000B0EB114F0AD1FFE7019800F0FE41069832
:104C6000006C0138B0EB116F04D0FFE701208DF824
:104C70001F0035E040F63840C4F20240006881B2BF
:104C80000698C06CB0EBD10F24D0FFE740F6284166
:104C9000C4F20241086820F010000860FCF73EFAF8
:104CA0000590FFE7FCF73AFA0599401A08B9FFE7C3
:104CB000F8E70698C06CC00040F63841C4F20241E3
:104CC000086040F62841C4F20241086840F0100034
:104CD0000860FFE7FFE7FFE700208DF81F00FFE710
:104CE0009DF81F0008B080BD82B00190019800902F
:104CF000042843D80099DFE801F00C1D2F41030080
:104D00004EF21001CEF20001086840F00400086085
:104D100035E04EF21001CEF20001086820F00400E8
:104D2000086040F6E441C4F20241086820F00C003B
:104D3000086024E04EF21001CEF20001086820F075
:104D40000400086040F6E441C4F202410868012210
:104D500062F38300086012E04EF21001CEF200010F
:104D6000086820F00400086040F6E441C4F2024103
:104D70000868022262F38300086000E0FFE702B0E7
:104D80007047000082B0009000980138B0F1807F39
:104D900003D3FFE70120019016E0009801384EF29E
:104DA0001401CEF2000108604EF21801CEF20001AB
:104DB000002008604EF21002CEF20002116841F0AD
:104DC000030111600190FFE7019802B070470000F5
:104DD00083B04EF21000CEF20000006840070028B9
:104DE00003D5FFE70420029020E040F6E440C4F23F
:104DF0000240006800F00C0001900198009040B162
:104E0000FFE70098042807D0FFE70098082806D09D
:104E100008E00020029008E00120029005E0022056
:104E2000029002E000200290FFE7FFE7029803B043
:104E30007047000083B00190FFE7019890F884006C
:104E4000012804D1FFE702208DF80B002CE0019926
:104E5000012081F88400FFE7FFE701992420C1F8D1
:104E6000880001980068006800900198016808684F
:104E700020F001000860009820F000500090019997
:104E8000002048660098019909680860019920206F
:104E9000C1F88800FFE70199002081F88400FFE74E
:104EA00000208DF80B00FFE79DF80B0003B0704762
:104EB00080B584B002900191FFE7029890F88400D9
:104EC000012804D1FFE702208DF80F0032E002999B
:104ED000012081F88400FFE7FFE702992420C1F850
:104EE00088000298006800680090029801680868CD
:104EF00020F00100086002980068806820F060607F
:104F000001990843029909688860029800F0D2FF6D
:104F1000009802990968086002992020C1F8880069
:104F2000FFE70299002081F88400FFE700208DF858
:104F30000F00FFE79DF80F0004B080BD80B584B07E
:104F400002900191FFE7029890F88400012804D1B3
:104F5000FFE702208DF80F0032E00299012081F86E
:104F60008400FFE7FFE702992420C1F88800029837
:104F700000680068009002980168086820F001004D
:104F8000086002980068806820F06040019908433A
:104F9000029909688860029800F08CFF00980299D5
:104FA0000968086002992020C1F88800FFE702998B
:104FB000002081F88400FFE700208DF80F00FFE754
:104FC0009DF80F0004B080BD80B582B000900098BD
:104FD00020B9FFE701208DF8070046E000988069BE
:104FE00008B1FFE700E0FFE70098D0F8880040B97B
:104FF000FFE70099002081F88400009800F03AF85B
:10500000FFE700992420C1F888000098016808682B
:1050100020F0010008600098806A20B1FFE7009846
:1050200000F08EFFFFE7009801F022F9012804D17B
:10503000FFE701208DF8070017E000980168486835
:1050400020F49040486000980168886820F02A00A9
:10505000886000980168086840F0010008600098C6
:1050600001F012F88DF80700FFE79DF8070002B085
:1050700080BD000081B0009001B0704780B58AB05B
:1050800008900791ADF81A2005930898D0F8880089
:10509000202840F09580FFE7079820B1FFE7BDF892
:1050A0001A0020B9FFE701208DF827008CE008984E
:1050B000006880680006002807D5FFE708980168A7
:1050C000886820F080008860FFE708990020C1F818
:1050D000900008992120C1F88800FCF71FF8029081
:1050E000BDF81A000899A1F85400BDF81A000899F3
:1050F000A1F8560008988068B0F5805F09D1FFE7F5
:105100000898006928B9FFE70020049007980390E9
:1051100004E00798049000200390FFE7FFE7089859
:10512000B0F8560088B3FFE70898029B05996A46D5
:1051300011608021002201F013FA40B1FFE70899C5
:105140002020C1F8880003208DF827003CE0049857
:1051500058B9FFE7039800886FF35F200899096842
:10516000886203980230039008E004980078089958
:1051700009688862049801300490FFE70899B1F843
:1051800056000138A1F85600C9E70898029B059916
:105190006A4611604021002201F0E2F940B1FFE7C8
:1051A00008992020C1F8880003208DF827000BE023
:1051B00008992020C1F8880000208DF8270003E01E
:1051C00002208DF82700FFE79DF827000AB080BD78
:1051D000FFE7FEE780B582B0019040F69C41C4F243
:1051E0000241086820F40010086040F20040C4F258
:1051F000022000904021FBF745FD00988021FBF73D
:1052000041FD02B080BD000080B5B0B02F9008A86D
:1052100005908821FBF788F80598002109914FF443
:10522000005208921991FDF70DFFFFE740F68C4000
:10523000C4F20240016841F002010160006800F020
:10524000020007900798FFE740202A901220009064
:105250002B90002001902C902D90042002902E90F5
:1052600040F20040C4F2022003902AA90491FBF707
:10527000B1FDDDF800C0019B029A039804994FF03C
:10528000800ECDF8A8E0CDF8ACC02C932D932E92D3
:10529000FBF7A0FDFFE740F69C40C4F20240016826
:1052A00041F400110160006800F4001006900698B7
:1052B000FFE730B080BD000081B00090009800682A
:1052C000806900F002010020B0EB510F05D0FFE72C
:1052D0000098016800208862FFE7009800688069F4
:1052E000C00738B9FFE700980168886940F00100FD
:1052F0008861FFE701B0704780B58AB009900891D6
:10530000079200208DF81B000999096889690591A9
:105310000490079803909DF81400C006002840F1FF
:105320008680FFE7099801681020C861FFE70998A7
:105330000068806900F0200200210846B1EB521F8E
:10534000009007D1FFE79DF81B00B0FA80F04009FC
:105350000090FFE70098C007002857D0FFE70898A3
:105360000130002851D0FFE7FBF7D8FE0399401A1F
:105370000899884204D8FFE70898002844D1FFE73D
:1053800009980068406800F480400290099890F8FD
:1053900042008DF8070009980068806981B20020FA
:1053A000B0EBD13F14D0FFE70298B0F5804F0FD09B
:1053B000FFE79DF8070020280AD0FFE70998016859
:1053C000486840F480404860FBF7A8FE0390FFE780
:1053D000FFE709980068806900F020010020B0EB29
:1053E000511F10D1FFE7FBF799FE0399401A1A28C5
:1053F00008D3FFE7049840F02000049001208DF8C6
:105400001B0000E0E5E7FFE7FFE790E79DF81B00E2
:1054100028B9FFE7099801682020C861FFE70498D0
:1054200040F00400049001208DF81B00FFE709986C
:105430000068806905909DF81500C00768B1FFE716
:10544000049840F001000490099801684FF48070BE
:10545000C86101208DF81B00FFE79DF8150040078B
:1054600000280DD5FFE7049840F008000490099843
:1054700001684FF48060C86101208DF81B00FFE7D0
:105480009DF81500800700280DD5FFE7049840F02F
:1054900002000490099801684FF40070C86101206F
:1054A0008DF81B00FFE79DF81B0000B3FFE709988C
:1054B000FFF702FF0998016848684EF60002CFF630
:1054C000006210404860049A0999486C104348648F
:1054D0000999202081F841000999002081F84200B3
:1054E000FFE70999002081F84000FFE7FFE79DF8FA
:1054F0001B000AB080BD000084B0DDF810C003902E
:10550000ADF80A108DF809200193BDF80A006FF379
:105510009F209DF8091040EA014001990843049931
:10552000084320F000400090039800684068049908
:1055300020EA515049F60041CFF600410840009959
:10554000084303990968486004B0704780B586B085
:10555000DDF820C0049003918DF80B200193FFE744
:1055600004980068806903990840401AB0FA80F0F6
:1055700040099DF80B10884242D1FFE70498019939
:10558000089AFFF7B9FE20B1FFE701208DF8170058
:105590003AE00198013090B3FFE7FBF7BFFD0899AF
:1055A000401A0199884203D8FFE7019830BBFFE712
:1055B00004980068806903990840401AB0FA80F0A6
:1055C00040099DF80B10884217D1FFE70499486CF9
:1055D00040F0200048640499202081F8410004999B
:1055E000002081F84200FFE70499002081F8400084
:1055F000FFE701208DF8170006E0FFE7FFE7AFE7C0
:1056000000208DF81700FFE79DF8170006B080BD59
:1056100080B586B005900491039200208DF80B00B0
:10562000FFE705980068806900F004020021084641
:10563000B1EB920F019007D1FFE79DF80B00B0FA94
:1056400080F040090190FFE70198C007002800F0B2
:105650008F80FFE705980499039AFFF74DFE20B16C
:10566000FFE701208DF80B00FFE7059800688069CF
:1056700000F020010120B0EB511F4BD1FFE79DF856
:105680000B00002846D1FFE705980068806900F00C
:1056900004010120B0EB910F08D1FFE70598008DC0
:1056A00020B1FFE700208DF80B00FFE705980068A8
:1056B000806900F010010120B0EB111F25D1FFE738
:1056C000059801681020C861059904204864059870
:1056D00001682020C86105990A6851684EF60003E8
:1056E000CFF6006319405160059981F84100059992
:1056F000002081F84200FFE70599002081F8400072
:10570000FFE701208DF80B0003E0059900204864B5
:10571000FFE7FFE7FBF702FD0399401A049988426F
:1057200003D8FFE7049810BBFFE79DF80B00F0B922
:10573000FFE705980068806900F004010020B0EBE5
:10574000910F13D1FFE70599486C40F020004864A1
:105750000599202081F84100FFE70599002081F894
:105760004000FFE701208DF80B00FFE7FFE758E757
:105770009DF80B0006B080BD80B584B00290019109
:105780000092FFE702980068806900F02001002085
:10579000B0EB511F39D1FFE702980199009AFFF74A
:1057A000ABFD20B1FFE701208DF80F0031E0FBF7E2
:1057B000B5FC0099401A0199884203D8FFE7019887
:1057C00010BBFFE702980068806900F0200100200C
:1057D000B0EB511F17D1FFE70299486C40F0200051
:1057E00048640299202081F841000299002081F844
:1057F0004200FFE70299002081F84000FFE7012006
:105800008DF80F0005E0FFE7BCE700208DF80F00E2
:10581000FFE79DF80F0004B080BD000080B584B0A4
:10582000029001910092FFE702980068806900F001
:1058300002010020B0EB510F3ED1FFE70298019921
:10584000009AFFF759FD20B1FFE701208DF80F0006
:1058500036E00198013070B3FFE7FBF75FFC009979
:10586000401A0199884203D8FFE7019810BBFFE76F
:1058700002980068806900F002010020B0EB510F2F
:1058800017D1FFE70299486C40F020004864029964
:10589000202081F841000299002081F84200FFE7B2
:1058A0000299002081F84000FFE701208DF80F00E9
:1058B00006E0FFE7FFE7B7E700208DF80F00FFE7FE
:1058C0009DF80F0004B080BD80B58CB000200B9017
:1058D0000A90099008900790FFE740F68C40C4F2C8
:1058E0000240016841F001010160006800F0010020
:1058F00006900698FFE7FFE740F68C40C4F20240AE
:10590000016841F002010160006800F002000590AA
:105910000598FFE70020C4F20220039001210191C5
:1059200000220292FBF7E4FB019A02990398079286
:10593000089209910A9107A90491FBF74BFA029A80
:10594000039804990223079308920992FBF742FAFD
:105950000CB080BD80B582B0019000208DF80300AE
:10596000019A45F20041C4F200011160019A44F22B
:10597000E531C1F2C001516001998860019A0121AD
:10598000D160019908610199486101998861019983
:10599000C861019908620198FBF7A2FC20B1FFE7FA
:1059A00001208DF80300FFE701980021FBF7BCFB05
:1059B00020B1FFE701208DF80300FFE701980021E7
:1059C000FBF7FEFB20B1FFE701208DF80300FFE7A6
:1059D0009DF8030002B080BD80B50020FBF72EFFCC
:1059E00018B1FFE7FBF728F9FFE7FBF747FF18B10E
:1059F000FFE7FBF721F9FFE780BD000080B500F06D
:105A00004FF880BD80B584B00390002001908DF8E0
:105A10000B00039A43F60001C4F201011160039ADE
:105A20004FF4E1315160039988600399C86003998C
:105A30000861039A0C215161039988610399C86137
:105A40000399086203994862039988620398FFF7F3
:105A5000BBFA20B1FFE701208DF80B00FFE70398A8
:105A60000021FFF76BFA20B1FFE701208DF80B0052
:105A7000FFE703980021FFF71BFA20B1FFE70120A1
:105A80008DF80B00FFE70398FFF7D4F920B1FFE78B
:105A900001208DF80B00FFE79DF80B0004B080BDDE
:105AA00080B582B000200190FAF7B8FE48F2395074
:105AB000C0F6000002F020F80198FBF741F801461B
:105AC00040F2B820C2F200000160006840B1FFE778
:105AD00048F21650C0F6000002F00EF8FFE7FEE7AD
